:020000040000FA
:020000002728AF
:0800080005280C1F09000C1370
:10001000831203131E0883120313A20020208316E9
:1000200003131E0883120313A300242023083F395F
:1000300022078312031386004D201F154D2009004F
:10004000A20CA20CA20C0800A30CA30C080083169F
:100050000313FF308500860180309F008312031355
:10006000FF308500860183120313C1309F004D20AD
:100070008312031383120313C0308B008312031304
:10008000831603130C1783160313831203130C1325
:10009000831203131F154D204C28A030A000A03060
:0C00A000A100A10B5128A00B4F28080064
:00000001FF
